:1000000000800020BD010000495D0000495D000046
:10001000495D0000495D0000495D0000155D00007C
:10002000155D0000155D0000155D0000495D0000D4
:10003000495D0000155D0000495D0000055D0000A0
:10004000495D0000495D0000495D0000D9350000B0
:10005000495D0000495D0000495D0000495D000008
:10006000495D0000495D0000495D0000495D0000F8
:10007000495D0000495D0000495D0000495D0000E8
:10008000495D0000495D0000495D0000495D0000D8
:10009000495D0000495D0000495D0000495D0000C8
:1000A000914200006D420000495D0000495D000082
:1000B000495D0000495D0000495D0000495D0000A8
:1000C000495D0000495D0000495D0000495D000098
:1000D000495D0000495D0000495D0000495D000088
:1000E000495D0000495D0000495D0000495D000078
:1000F000495D0000AD680000495D0000316C000002
:10010000495D0000696F0000495D0000495D000025
:10011000495D0000495D0000495D0000495D000047
:10012000495D0000495D0000495D0000495D000037
:10013000495D0000495D0000495D0000495D000027
:10014000ED5A0000495D0000495D0000495D000076
:10015000217F0000397F0000517F0000697F00008F
:10016000495D000025720000495D0000495D000006
:10017000495D0000495D0000495D0000495D0000E7
:10018000495D0000495D0000495D0000495D0000D7
:10019000495D0000495D0000495D0000C55E00004A
:1001A000155F00009D5F000059600000DD600000E9
:1001B000495D0000495D0000217C00004F4B4CF27E
:1001C000205210B51A804DF628121A8000BF00BFC9
:1001D00005F0BEFD4A4B4FF010621A60494A9A6022
:1001E000494ADA60494B1A6812F4807204D14849CE
:1001F0000A604FF4A8521A60464B1A7802F00802BF
:10020000D2B21AB11A7842F008021A70424B43482F
:10021000434C2A221A700023424A02E0195999508D
:10022000043399188142F9D33F4B404A002101E041
:1002300043F8041B9342FBD33D4B00221A603D4B15
:100240003D4A802103F8011B9342FBD13B4B0A221C
:100250001A703B4B24221A70A02203F8012C394A51
:10026000137803F00203DBB2002BF9D0354A137880
:1002700003F01003DBB2002BF9D1324A137803F0FC
:100280000C03082BFAD1304B03221A7040225A700B
:100290002C4A137803F02003DBB2002BF9D0294A53
:1002A000137803F04003DBB2002BF9D0274B284A28
:1002B0001A6002225A60274B20221A70214A1378B2
:1002C00003F00C030C2BFAD1234A244B1A60244B65
:1002D000244A1A60072243F8042C62B606F0CEF8CE
:1002E0000B4B1B68DC0702D51F4805F00FFF0CF015
:1002F00017F805F033FD07F0A9FEFEE70E200540D4
:1003000030800440823F04000100002B10D00340E5
:1003100014D0034002D0074000E0074010A9FF1F9F
:10032000084B0100809AFF1F10A9FF1F28C8FF1F5C
:1003300008ED00E000E400E05FE400E0005006406B
:100340000140064006400640044006404480044008
:100350000000030100400640C01005000480044076
:1003600014E000E0FF76010046DBF053FFFFFFFFE3
:10037000FFFFFFFFFFFFFFFFFFFFFFFFFFFFFFFF8D
:10038000FFFFFFFFFFFFFFFFFFFFFFFFFFFFFFFF7D
:10039000FFFFFFFFFFFFFFFFFFFFFFFFFFFFFFFF6D
:1003A000FFFFFFFFFFFFFFFFFFFFFFFFFFFFFFFF5D
:1003B000FFFFFFFFFFFFFFFFFFFFFFFFFFFFFFFF4D
:1003C000FFFFFFFFFFFFFFFFFFFFFFFFFFFFFFFF3D
:1003D000FFFFFFFFFFFFFFFFFFFFFFFFFFFFFFFF2D
:1003E000FFFFFFFFFFFFFFFFFFFFFFFFFFFFFFFF1D
:1003F000FFFFFFFFFFFFFFFFFFFFFFFFFFFFFFFF0D
:10040000FFFFFFFFFFFFFFFFFFFFFFFFFEFFFFFFFD
:1004100008B54AF61010074BC1F6FF701B1A062BE1
:1004200000D808BD40F20003C0F20003002BF8D052
:100430009847F6E713A9FF1F08B54AF610104AF6C9
:100440001013C1F6FF70C1F6FF731B1A9B1003EB6C
:10045000D373591000D108BD40F20002C0F200026F
:10046000002AF8D09047F6E710B54AF61014C1F606
:10047000FF74237873B9FFF7CBFF40F20003C0F29B
:1004800000032BB144F60830C0F20100AFF3008046
:100490000123237010BD00BF08B540F20003C0F275
:1004A00000034BB144F608304AF61411C0F20100C3
:1004B000C1F6FF71AFF300804AF61010C1F6FF706D
:1004C00003682BB140F20003C0F2000303B1984768
:1004D000BDE80840FFF7B0BF004870472039010071
:1004E000014B0360704700BF103F0100034B10B584
:1004F0000446036007F0B4FD204610BD103F010024
:100500002DE9F04F044685B040680D4602F0E2FC4C
:100510003F490BF097FD06460BF06CF83AA3D3E980
:1005200000230BF041FB00B13A4E6768B87A0BF03C
:1005300081FC31460BF0D2FC4FF07E510BF0C6FB34
:100540000BF0B8FEA28A83B29A4201D2A08204E0E4
:100550000F2101FB02331B11A382384602F0CEFCAF
:10056000C008B428A8BFB420039000264FF0060CA2
:1005700034E0636893F80AB0CDF808C00BFB07FBC2
:100580009BFBFCFB1FFA8BFB0BEB090109B2284616
:1005900004F0FFF9A38A9AFBF3F3013BDBB20146B7
:1005A000424600932846FF2304F0D6F8C9EB0B011E
:1005B00009B2284604F0EDF9A38A9AFBF3F3013B54
:1005C000DBB2014600932846FF234246013704F080
:1005D000C3F8062FDDF808C0CBD10136A38A9E42AE
:1005E0000ADA6FF0C70303FB06FA039B00271FFA22
:1005F00086F95FFA83F8BCE72846802105B0BDE89C
:10060000F04F04F0B5B900BF333333333333C33F56
:10061000000040409A99193E10B5044601F06AFF67
:10062000024B23600023A382204610BD4039010005
:100630002DE9F3410D461646132800F27482DFE8D7
:1006400010F027016E00460164017801020192005A
:10065000BF0072023102FD012F001400E0001C01F6
:100660007700A901C701E001F401282007F0F6FC9A
:1006700000F114030093294632461423044601F086
:1006800045FFB14B23601E232375B04B022200218E
:10069000A361627504F11C0000914FF47F03CFE069
:1006A000782007F0DBFC00F1680732460097294606
:1006B0000C23044601F02AFFA54B002223600023EF
:1006C000626123832262A384E262238604F13808F4
:1006D000A97A404603F03EFF9E4B93E8070087E867
:1006E000070031464046B4F8702003F05DFF26460F
:1006F0000327284602F032FC0BF098FB7061284675
:1007000002F02CFC0C36B081013FF2D14FF47F0394
:10071000E3614FF47F43A362FF23636304E2182085
:1007200007F09CFC294632460446FFF775FFFBE1C3
:10073000382007F093FC00F1140729460097324651
:100740001C2304463D4601F0E1FE834F834B2663A4
:1007500023600FCF0FC597E80700002385E8070047
:1007600084F83430E0E1342007F078FC00F114071D
:100770000446294632462023009701F0C7FE25464D
:10078000774B012145F81E3B6FF07F430A460093EB
:100790003846A3F5DE0303F003FE724B01210093FC
:1007A0002846A3F5DE030A4603F0FAFD6E4BA3626A
:1007B0001E23A3850A23E385002384F83030B3E1A8
:1007C000502007F04BFC00F1480732462946082329
:1007D0000097044601F09AFE644B6661236004F1C1
:1007E0001808A97A404603F0B5FE614A10685168BE
:1007F0003B4603C340463146B4F84E2003F0D4FED6
:1008000092E1282007F02AFC00F114030093294606
:1008100032461423044601F079FE564B23604523EB
:1008200023754FF47A63E3824FF07C53A3616FF03A
:100830007F43009304F11C0001210022A3F57F03F4
:1008400003F0AEFD70E11C2007F008FC00F1140776
:100850002946324606230097044601F057FE464BD0
:100860002360464B18689B886061238328464FF4B9
:10087000807102F079FB207556E1142007F0EEFB41
:1008800029463246044601F035FE3D4B23604BE1DC
:10089000242007F0E3FB00F11403009329463246BD
:1008A0000E23044601F032FE364B23600A232375E3
:1008B0006FF07F43009304F11600A3F57F0301213D
:1008C000002203F06DFD402384F820302CE1242029
:1008D00007F0C4FB00F114030093294632461023AD
:1008E000044601F013FE284B23600F2323750223D7
:1008F00063754023A375012100226FF07F43E175EA
:10090000227604F11A00009398E7202007F0A6FB56
:1009100000F11407294632460C230097044601F0E3
:10092000F5FD1A4B23601A4B93E8070087E8070090
:10093000FAE04FF40A7007F091FB2946324604466C
:1009400000F05CFAF0E000BFE0390100CDCC4C3D96
:10095000B83C010058390100643901000041010030
:100960005841010000FFFF003333333F30410100A5
:1009700080390100903C0100003C010088390100F1
:1009800090410100003A0100D83A0100183B0100F3
:1009900090390100282007F061FB00F11503009356
:1009A000324610232946044601F0B0FD604BFF2279
:1009B000236062750023627662770322A375E37574
:1009C0002376A376E376237784F824202375ABE09F
:1009D000202007F043FB29463246044601F08AFDF9
:1009E000544B2360544B6361544B2846A36100F081
:1009F000BFFE0423E36004F11C03A3600023E36152
:100A000092E01C2007F02AFB00F114030093294612
:100A100004233246044601F079FD494B2360494BDB
:100A2000186800236061A3617EE0202007F016FBB8
:100A300029463246044600F0F7F875E03C2007F0FE
:100A40000DFB00F114032946009332462823044687
:100A500001F05CFD3C4B2360192323753B4B0021C7
:100A60004FF47F05A36102220B46009504F11C00A0
:100A700003F096FC364B0021009302222B4604F132
:100A8000260003F08DFC2023009304F130000021A8
:100A9000022203F085FC022384F83A30012384F813
:100AA0003B3041E04FF4AC7007F0D8FA00F114038A
:100AB0000093294632462423044601F027FD254BA6
:100AC00023604FF4FA63A3820A2323761A4BE3616F
:100AD0004FF07E53236200210525FF264FF47F034C
:100AE000A575E6750A46009304F1240003F058FC4E
:100AF00000210A46009604F12E004FF47F4303F0D4
:100B00004FFC00230122A56384F83C302364C4F821
:100B10004431C4F8483184F83D20C4F84C312046B3
:100B200000F057FF00E000242046BDE8FC8100BF34
:100B3000583E0100E03B0100CDCCCC3D9A99993E56
:100B4000583C01009C390100F03E01000000C84201
:100B50008080FF00383C010000487047C039010028
:100B6000014B0360704700BF103F0100034B10B5FD
:100B70000446036007F074FA204610BD103F0100E0
:100B80002DE9F74304460D4601F0CCFCA369C01AD9
:100B900063283DD9267DA18B002E0CBF4FF0FF3678
:100BA00001267118A183284609B203F0F2FE00273E
:100BB0001FFA86F8A0833E46A18BC91B09B22846BE
:100BC00003F0E7FE814630460AF002FD12A3D3E9A6
:100BD00000230AF063FD02460B4611A1D1E9000192
:100BE0000AF0A8FB0AF0F4FFC2B200922846494678
:100BF0001346013603F09AFD4744652EBFB2DBD1A0
:100C000060682946802203B0BDE8F04302F0DAB9FB
:100C100003B0BDE8F08300BF6666666666660440A2
:100C20000000000000E06F4038B504460D4601F0BA
:100C300061FC064B236095F908305A1E534253411C
:100C400023750023A361A383204638BDA839010082
:100C500000487047CE390100014B0360704700BF68
:100C6000103F0100034B10B50446036007F0F8F98C
:100C7000204610BD103F01002DE9F04704460F4605
:100C800001F05EFC0546207D0BF0D4F801462846B5
:100C90000BF024F90025814604F11C0A36E0E9B284
:100CA00002F01EF949460BF00FF80646607D0BF086
:100CB000C1F8014630460BF011F9064607F0B0FCCA
:100CC000014630460BF000F8002106460BF0A4FA6E
:100CD00008B106F10046D4F81880304641460BF0C2
:100CE0009BFA90B14FF0874130460BF0F7F8414640
:100CF0000BF0A8F90BF0DEFAC1B2504603F0DEFBB0
:100D0000A9B20246384603F0FBFC0135384603F031
:100D10004EFE85426068C2DB3946BDE8F04702F00E
:100D20009DB9FFFF00487047183A0100014B03606E
:100D3000704700BF103F0100034B10B5044603602D
:100D400007F08EF9204610BD103F0100F0B585B0C8
:100D500004460D4601F0F4FB4FF087410BF0BEF85E
:100D60000746207D0BF066F8014638460BF0B6F8D2
:100D70000BF0A0FA04F116060DF10F03C1B20093B7
:100D800030460DF10D020DF10E0303F066FB9DF8E8
:100D90000E209DF80D109DF80F30284603F03DFD04
:100DA0006068294602F05AF9606894F820202946C4
:100DB00002F008F905B0F0BD00487047263A01007E
:100DC000074B10B5044640F8483B03F0A5FB04F17F
:100DD000180003F0A1FB034B2046236010BD00BFA9
:100DE000B83A0100103F010010B50446FFF7E8FFD4
:100DF000204607F035F9204610BDFFFF2DE9F041F0
:100E000004461646884601F075FB344B23600623E2
:100E1000237504F1180598F80A10284604F14807CC
:100E200003F098FB98F80A10384603F093FB294624
:100E300004F1780003F038FE294604F19C0003F029
:100E400033FE294604F1C00003F02EFE294604F1CA
:100E5000E40003F029FE294604F5847003F024FE23
:100E6000294604F5967003F01FFE294604F5A87084
:100E700003F01AFE294604F5BA7003F015FE294660
:100E800004F5CC7003F010FE294604F5DE7003F083
:100E90000BFE294604F5F07003F006FE0023C4F8AB
:100EA000083284F81C32217D2246184602E082F87E
:100EB0005500013324328B42F9DB28463146C4F811
:100EC00004624FF4FA7203F06FFB3846314640F289
:100ED000EE2203F069FB2046BDE8F081B83A01003C
:100EE00008B501F01FFB6423B0FBF3F0C0B208BDEE
:100EF0002DE9F74300F1180804464046894603F0FF
:100F000056FD07F089F904F1480685B229463046B6
:100F100003F005FD29460746304603F00DFD29463E
:100F20003F18304603F016FD38183228164F484651
:100F300003DD16490AF0D2FF05E015490AF0CEFF9D
:100F400014490AF0C3FE0BF0B5F9B8700E4FFF2339
:100F500020467B70FFF7C4FF0F4C3870214638469F
:100F600003F06AFEA1782278637800913046294622
:100F700003F0DCFBA1782278637800914046294693
:100F800003F0D4FBBDE8FE832FA9FF1F00004842F9
:100F9000000096420000C8412CA9FF1FFFFFFFFF81
:100FA0002DE9FF41D0F80852044601F0BBFA854212
:100FB00000F2C3806068644901F0B8FFD4F82002F1
:100FC00062490AF08BFF62490AF080FE0546322032
:100FD00007F022F90AF02AFF014628460AF076FEB9
:100FE0000BF068F980B2FF2834BF0646FF26594946
:100FF0006068324601F09AFF204601F093FA00F54E
:101000009670C4F80802207D07F006F9242707FB34
:101010000047054697F879306068002B66D12A466C
:101020004D4901F083FFD4F820020AF0E3FA44A30B
:10103000D3E900230AF0A4FD002868D0042007F0BB
:10104000EBF801285DD162E0242303FB0543FF2276
:1010500083F8852083F88760D4F820024FF07C5114
:101060000BF0F8F8002862D0062007F0D5F8002829
:1010700057D05CE024235D4305F17807E719651933
:101080003846B1B203F048FD32466068B5F88830A2
:10109000324901F04BFF95F8863095F8848095F839
:1010A00085600093D5F880000AF0A4FA42463346E2
:1010B000CDE902012A49606801F038FF04F1180007
:1010C00003F075FC07F0A8F8A5F87A00022007F0F5
:1010D000A3F8003018BF012085F87800204601F001
:1010E00021FA0146384603F005FD03E01D492A4672
:1010F00001F01CFF60681C4904B0BDE8F04101F03C
:1011000015BF2046FFF7ECFE87F884009CE74FF4FC
:10111000807007F081F8242303FB054383F88400E3
:1011200092E7282007F078F800F11E06A2E71E20BB
:1011300007F072F800F10A069CE704B0BDE8F08100
:101140009A9999999999C93F2E3A0100000048430C
:1011500000004842393A0100463A01005C3A010079
:10116000663A0100773A0100913A0100AFF300803E
:10117000F8B504460D4608464FF07E510BF060F876
:1011800050B1012384F81C32D4F810320133C4F872
:1011900010324FF07C550BE0D4F80C32D4F8180222
:1011A0000133C4F80C3229460AF090FDC4F8180245
:1011B0006368987A0AF03EFE014628460AF08EFEE1
:1011C00008490AF03FFF0BF04FF800260128ACBF9A
:1011D00007460127204629460136FFF789FEBE4211
:1011E000F8DBF8BD0000A0402DE9F0470446884632
:1011F00001F098F90546606801F06CFED4F804220D
:10120000A5F114039A42064688BFC4F804324FF091
:101210000009D4F804320733AB423ED2C4F804329A
:1012200030460AF0E7F940A3D3E900230AF0C6FCF0
:10123000B8B1414930460AF051FE0AF0DBF93CA34F
:10124000D3E900230AF078F80AF0EAFC4FF07E5167
:1012500007460AF0F5FF00B1384F20463946FFF740
:1012600087FF052006F0D8FF10B92046344905E075
:101270000A2006F0D1FF20B932492046FFF738FE98
:10128000C7E74FF4C87006F0C7FF0028C1D1C4F803
:1012900020922046FFF784FEBBE7606801F01DFE48
:1012A00090B130460AF0A6F90B460246264960681E
:1012B00001F03CFE0123C4F8206284F81C32204671
:1012C0004FF07E51FFF754FF94F81C322BB12046AB
:1012D000FFF766FE002384F81C3204F1180704F1BE
:1012E00048093846494603F0F7FA00264FF0240A29
:1012F00006E00AFB06407830294603F021FC01365F
:10130000237D9E42F5DB4046394603F0C2FA29466A
:10131000384603F0A1F948462946BDE8F04703F0F6
:101320009BB900BFAFF300807B14AE47E17A843FE6
:101330009A9999999999B93F0000A040A4707D3F6E
:10134000CDCCCC3D9A99993E9F3A0100AFF30080F5
:1013500000487047F03A0100014B0360704700BF3E
:10136000103F0100034B10B50446036006F078FE01
:10137000204610BD103F01002DE9F84F044690F8BB
:101380001580007D0E460AF055FD0546204601F009
:10139000D7F8014628460AF0A1FD4FEA0828814601
:1013A000002504F11A0A24E0237E6068E9B213B133
:1013B00001F096FD01E001F097FD014648460AF074
:1013C00085FC834640460AF035FD014658460AF042
:1013D00085FD0AF06FFFE77D80B290FBF7F179435E
:1013E000504603F06BF8A9B20246304603F088F984
:1013F0000135304603F0DBFA8542D5DB6068A27D1B
:101400003146BDE8F84F01F0DDBDFFFF00487047F1
:10141000013B0100014B0360704700BF103F01001A
:10142000034B10B50446036006F01AFE204610BDBB
:10143000103F01002DE9F04F87B04FF0020C9DF8EE
:1014400040009DF8448005901D4693FBFCF30F4639
:1014500093469DF84890C3F1000A0024FF262EE031
:1014600014EB0A03184ACDF80CC048BF93FBFCF3F9
:10147000534393FBF5F304EB0B01FF3323EAE373D0
:1014800009B23846049303F084FA049B0146059898
:1014900003FB08FE03FB00F203FB09F393FBF6F3E7
:1014A0009EFBF6FEDBB292FBF6F200933846D2B218
:1014B0005FFA8EF303F08CF9DDF80CC00134AC4216
:1014C000CEDB07B0BDE8F08F02FEFFFF2DE9FF473E
:1014D00043680446987A0E460AF0ACFCE1690AF0CB
:1014E000FDFC0AF0C1FE0746204601F01BF894F906
:1014F00015A090FBFAFA204601F014F894F9169022
:1015000090FBF9F9204601F00DF8237D94F917803E
:101510000093002590FBF8F83146204652463B46A2
:1015200001950295FFF786FF237D009501932046E4
:1015300031464A463B460295FFF77CFF237D0095E6
:10154000029320463146424601953B46FFF772FF23
:101550006068227E314604B0BDE8F04701F032BD3C
:1015600000B58BB068460BF06DFB07980BB000BD63
:10157000436873B504460D4693B10068204901F0F5
:10158000D5FCFFF7EDFF0646606810B102685268AF
:101590009047FFF7E5FF1B49321A206801F0C6FCAF
:1015A000072D01D8257301E0002323731649227B00
:1015B000206801F0BBFC154B1B680193019DFFF7F0
:1015C000CFFF2A4621680646207BFFF731F860608E
:1015D000FFF7C6FF0E49821B206801F0A7FC0D4BE8
:1015E00060685B68ED18A56040B102682468926885
:1015F000904709490246204601F098FC7CBD00BF97
:10160000303B0100483B0100583B010004C5FF1F6F
:10161000733B0100849AFF1F873B0100017B01316E
:10162000C9B2FFF7A5BFFFFFF0B5044685B000685B
:101630000F4601F09DFC184B1B680193019AA368AB
:101640009A4223D863680BB3206801F025FA6068DA
:1016500000B3114E336802930368029DDB6839467C
:10166000984733680393039B5D1B142D0AD9606868
:101670002668026892689047084902462B46304621
:1016800001F054FC206801F007FA03E02046FFF760
:10169000C5FFD9E705B0F0BD04C5FF1F933B0100AE
:1016A00000487047C53B0100014B0360704700BF15
:1016B000103F010010B5074C04F1800000F088FFD6
:1016C00004F1400000F084FF2046BDE8104000F027
:1016D0007FBF00BF38A9FF1F034B10B5044603604E
:1016E00006F0BEFC204610BD103F01002DE9F84F6A
:1016F0000F46804600F016FF044621461948DFF8E1
:1017000064B000F089FF2146174800F085FF2146AC
:10171000164800F081FF00241AE0D8F81C6000256C
:101720001FFA84F90BEB851A4946504601F058F828
:10173000014620B13246504601F016F80646013502
:10174000032DEFD138464946324602F0D9FF013425
:10175000D8F80400837A9C42DFDB3946BDE8F84FB5
:1017600001F07CBC38A9FF1F78A9FF1FB8A9FF1F93
:101770002DE9F843204F214C4FF0000906464FF069
:101780007E5338682361A4F82A9009F033FF4FF0A4
:1017900080434FF0C808C4E906012365786884F8DF
:1017A0002C8040F24D13A4F86A3084F82D9084F810
:1017B0002E90266309F01EFF114B84F86C90C4E94B
:1017C0001601C4F89030B86884F86D8040F29A230E
:1017D00084F86E902667A4F8AA3009F00BFF4D46F6
:1017E000C4E9260184F8AC9084F8AD9084F8AE800A
:1017F000C4F8B060BDE8F883989AFF1F38A9FF1FAE
:101800000000404010B5094C204600F0B5FE04F140
:10181000400000F0B1FE04F1800000F0ADFE04498C
:10182000044A0020BDE810400AF064BD38A9FF1F3B
:10183000B5160000809AFF1F00487047183C010051
:10184000014B0360704700BF103F0100034B10B510
:101850000446036006F004FC204610BD103F010062
:101860002DE9F041044640680D4601F047FB667DD6
:101870007043C0F1FF06A07D0AF0DCFA07466068FD
:1018800001F028FB8046208B0AF0D4FA014640463E
:101890000AF024FB014638460AF018FA0AF0E4FC84
:1018A000B042B8BF3046FF28B4BF0346FF23217DB6
:1018B0002846FF22DBB2BDE8F04102F0BCBFFFFFCB
:1018C00000487047243C0100014B0360704700BF93
:1018D000103F0100034B10B50446036006F0C0FB47
:1018E000204610BD103F010070B50446D0F8545199
:1018F000406801F0E5FA226CD4F84431801A13B93B
:101900000123C4F84431D4F84421D4F84811B0FB81
:10191000F2F38B4202FB130004D00025C4F84831D7
:10192000C4F85451D4F85431D4F85011002209E0CD
:1019300004EB8306766CB04201D832B907E05D1C37
:1019400001222B468B42F3DBF7E7E37DA363C4F868
:10195000545170BD10B50446406801F0B1FAD4F896
:101960005031226C04EB830101333F2BC2EB0000AA
:10197000C8BF3F234864C4F8503110BD90F83C30D4
:101980008B4270B504460D4622D0066C84F83C109C
:10199000406801F095FA2064A5B1A28A801BA2F1EB
:1019A0000A03984228BFC2F10A02C4F844014FF06A
:1019B00000032ABF1018C4F84431C4F84401C4F825
:1019C000543170BDC4F85051C4F84451C4F8485162
:1019D00070BD0023C0F85031C0F84431C0F8483120
:1019E0007047836B027E9A1A837D82639A42B8BFE6
:1019F000836370477FB5044640680E4601F06AFA7B
:101A000094F83D506DB1216A0AF024FC88B100239E
:101A100084F83D30606801F053FA0125C4F84C01A8
:101A200008E0E1690AF0F8FB18B1012384F83D30C1
:101A300000E005462046FFF7D4FF94F83C3033B170
:101A400020460DB1002113E0FFF74EFF12E025B153
:101A5000E37D2046A363FFF77DFF606801F030FA65
:101A6000D4F84C31A28AC01A904203D920460121F1
:101A7000FFF784FF94F83C3023B9D4F850313E2B63
:101A800026DC02E004F12E0001E004F124000DF157
:101A90000F030093A16B0DF10D020DF10E0302F087
:101AA000DCFC30469DF80D109DF80E209DF80F309F
:101AB00002F0B3FE30469DF80D109DF80E209DF803
:101AC0000F3002F0AAFE3046218F02F051FF08E0ED
:101AD00094F838308DF80D308DF80E308DF80F30C9
:101AE000E8E77FBD00487047703C0100014B036090
:101AF000704700BF103F0100034B10B50446036060
:101B000006F0AEFA204610BD103F01002DE9F74364
:101B1000044640680F4601F0D3F9A28AA369D3189E
:101B20009842064618D3384602F041FF06F074FB8F
:101B3000002581464FF0FF080AE005EB0901FF226E
:101B4000CDF80080384689B2134602F0EFFD01352A
:101B5000A37D9D42F1DBA661BDE8FE83004870478E
:101B6000783C0100014B0360704700BF103F01004B
:101B7000034B10B50446036006F072FA204610BD10
:101B8000103F010070B584690D460846214616468F
:101B90000AF042FB58B1214628460AF053FA4FF0AA
:101BA00087410AF09BF90AF085FBC0B212E021469A
:101BB00028460AF089F821460AF044FA4FF0874196
:101BC0000AF08CF9014607480AF07EF80AF04CFB4F
:101BD000002803DBFF28A8BFFF2000E000203070B2
:101BE00070BD00BF00007F43F0B5044685B00D46D0
:101BF00000F098FCE18A237DB0FBF1F159430DF12F
:101C00000E030646009304F11C0003AA0DF10D0318
:101C1000C9B202F022FC9DF80E309DF80D209DF80F
:101C20000C10284602F0F9FDE78AB6FBF7F007FB37
:101C300010600AF0FBF8064638460AF0FBF8014649
:101C400030460AF0FFF90DF10F0201462046FFF77A
:101C500099FF28469DF80F1002F08AFE6068294619
:101C600001F0FCF905B0F0BD00487047A83C010048
:101C7000054B10B5044640F8383B02F04DFC034BD1
:101C80002046236010BD00BFB83C0100103F01009A
:101C900010B50446FFF7ECFF204606F0E1F92046B8
:101CA00010BD2DE9F04F8DB005460846039102F0B6
:101CB0007EFE8046686801F021F90AF0B7F8044614
:101CC000B5F872000AF0B2F8014620460AF0BAF9F7
:101CD0004FF07E5104460AF0BDFA20B9204603F0C9
:101CE000DDF8064601E04FF07E56EC6EA96E204608
:101CF00009F0EAFF31460AF0F1F80146204609F002
:101D0000E3FF0490284600F00DFC05F1380A014677
:101D1000504602F0A1FC4FEA68000AF08BF802235B
:101D200098FBF3F35B42069305F1240305902C46E0
:101D30000B936769B4F918000AF07CF8394609F08A
:101D4000C3FF059906460AF085FA38B140460AF005
:101D500071F80146304609F0B7FF0EE006980AF028
:101D600069F8014630460AF057FA38B140460AF0A1
:101D700061F80146304609F0A9FF0646049930464D
:101D80000AF0ACF80146384609F0A0FF83466061CE
:101D9000594638460AF05EFA10B9D946BB4600E00B
:101DA000B946E769C7F30743079326F00040C7F336
:101DB00007234FF07E510A93FFB20AF02DFA78B153
:101DC00058464FF0804109F07FFF4FF08041834635
:101DD000484609F07BFF8146686801F0BFF8208320
:101DE000584609F007FC06F0FFFA09F0F1FE064636
:101DF000484609F0FFFB06F01BFACDE9080107E0B1
:101E0000B1B200975046079A0A9B02F0C2FC013615
:101E1000304609F0DDFBDDE9082309F0BBFE0028B0
:101E2000EED16669002130460AF0F6F96B6838B1E8
:101E3000987A09F0FFFF0146304609F047FF0CE0B1
:101E4000987A09F0F7FF0746394630460AF0F8F964
:101E500020B13046394609F037FF60610B9B0C34E6
:101E60009C427FF466AF039851460DB0BDE8F04F39
:101E700002F00FBD024B03EB8000B0F90200704787
:101E8000A49AFF1F014B33F920007047A49AFF1F4B
:101E90000A2A07D80023CA5CC25401330A2BFAD19C
:101EA000012070470020704738B5044608460D46AB
:101EB00003F08CFF236802465B682046294698475A
:101EC00038BD38B50446FFF7EFFF0546204606F05B
:101ED000C9F8281838BDFFFFF0B54749474889B011
:101EE000FFF7EFFF02F0AAFF00230A2005A9ADF8D3
:101EF0001430ADF81630ADF81830ADF81A308DF852
:101F00001C308DF81D3000F093FE58B13C493B4821
:101F1000FFF7CAFF3948BDF8141006F0EFF837484C
:101F200006F0A0F8374B354F1A680192019D002446
:101F30001E4602AB1819C4F10A0105F071FD241800
:101F4000092C09D83368BA680093009B5B1B934245
:101F5000EFD32A4B01221A732146284806F0CEF807
:101F600029492648FFF7ADFF0A210A4600232348E6
:101F700006F08CF821482549FFF7A3FF0A2C15D15C
:101F800005A802A92246FFF783FF30B1204605A924
:101F900000F076FE19481E4901E018481D49FFF778
:101FA00090FF1648BDF9181006F0A8F81A4C1B4D02
:101FB000A178E278607801F01DFD40F6587006F0D7
:101FC0004DF83C2105AA064600F046FF10202E6081
:101FD00006F044F80346002228685A609A600822F6
:101FE0001A730F4A1860136000F0E4FC208A03F0B3
:101FF00055FD09B0F0BD00BFD03C0100CCC7FF1FAC
:10200000E33C010004C5FF1FF53C0100013D010058
:10201000103D0100293D0100849AFF1F08AAFF1FFF
:102020000CAAFF1F30B51346044A05460C4610683B
:1020300029462246BDE8304000F02ABF08AAFF1F0B
:10204000064B1A7A002304E09B18801ADBB2C0F317
:1020500046009042F8D8C018C0B27047849AFF1F5B
:1020600038B5044602F0B8FA0546204602F08AFC6C
:102070000A4B68431B7AC0F3072083420CD2FFF758
:10208000DFFF00B20302181A90FBF5F189B2204677
:10209000BDE8384002F06CBC38BD00BF849AFF1F19
:1020A00037B504F07FFD021E04DD214B214918687D
:1020B00000F03CFF03F00EFD04F0ACF91E4C0546A9
:1020C00001F07EFB206802F033FA1C4B216818688F
:1020D000FFF7AAFA2068FFF7C3FF206803681B68B0
:1020E000984704F097F9164B1A680F2101FB02027A
:1020F000521B12091A60401B4FF47A73B0FBF3F0C5
:10210000C0F10A00002801DD04F0A2F90D4B1B68A4
:10211000019301996423B1FBF3F10D2001F001015A
:1021200004F056F8084B1A6801321A603EBD00BF31
:1021300008AAFF1F483D0100149EFF1F0CAAFF1FA5
:1021400010AAFF1F04C5FF1F04AAFF1F064B002291
:1021500011461A805A809A804FF42F72DA80012239
:1021600019725A72704700BFF8A9FF1F034B10B5D0
:102170000446036002F0D0F9204610BDB0420100D1
:1021800010B5054C204601F02BF9204601F036FA37
:10219000BDE81040FFF7A0BE14AAFF1FF7B5104D11
:1021A000104B2978104F114E114C01F13B021A606F
:1021B000104B114A3C3119600223009338463346D4
:1021C00001F0FAF83946324620462B7802F052FCEC
:1021D0000A490B4A204603B0BDE8F0400AF08AB82D
:1021E000849AFF1F98C0FF1F14AAFF1F15AAFF1F84
:1021F000A0C0FF1FD8C0FF1FA080FF1F6D210000DF
:10220000809AFF1F00487047703E0100014B036039
:10221000704700BF103F0100034B10B50446036038
:1022200005F01EFF204610BD103F010070B50446AA
:1022300040680D4600F051FE10B1237D0133237537
:10224000227D94F824309A4201D300232375227D05
:1022500002EB4202A3181C46597D9A7D153328468D
:102260009B78BDE8704002F0D8BAFFFF0048704785
:10227000763E0100014B0360704700BF103F010034
:10228000034B10B50446036005F0EAFE204610BD7E
:10229000103F010038B54FF07C51044609F0DAFFD9
:1022A000094D28B121464FF07E5009F00DFD04463E
:1022B000A88909F0BFFD0146204609F00FFE01463E
:1022C00009F004FD38BD00BF849AFF1F2DE9F04FCF
:1022D00097B00446109100F033F91190207DDFF89B
:1022E000709109F0A7FD119909F0F8FD054606F077
:1022F0004FF90146284609F0E7FC94F83B100546E3
:1023000094F83A0003F036FB0346284698471390AA
:10231000FFF7C0FFA5691290294609F0D5FC2946B0
:102320008246129809F0D2FC29461490284609F0FA
:10233000CDFC002515904FF000080F952F460E9507
:102340004BE0E9B2606800F0D4FD064631464846ED
:1023500009F080FF00B1B1464046314609F05CFF0C
:1023600000B1B0463046514609F056FF48B13046FC
:10237000514609F067FE0E9B013304F11C0B0E93CE
:102380001CE03046149909F047FF60B151463046D1
:1023900009F09AFC159909F055FE0F9B013304F1E1
:1023A000260B0F930AE0274B988909F043FD01465D
:1023B000304609F047FE04F1300B0137224909F09D
:1023C0008DFD09F051FF0146584602F077F8A9B299
:1023D0000246109802F094F90135109802F0E7FADD
:1023E0008542AEDB2046656800F09CF88246119875
:1023F00009F000F9CDE90001139809F0FBF8CDE9E7
:102400000201129809F0F6F8CDE90401484609F0F6
:10241000F1F8CDE90601404609F0ECF80E9B0C9767
:102420000A930F9BCDE908010B93284607495246B2
:1024300000F07CFD6068109917B0BDE8F04F00F027
:102440000DBE00BF849AFF1F00007F437D3E010048
:1024500000401C46014B0360704700BF103F010065
:1024600000487047283F01007047FFFF73B5C668FA
:1024700004460D460EB1836853B994E828002046FF
:102480009B68984713490246284600F04FFD0DE02F
:10249000B1420DD090E848009B689847E3680E4928
:1024A000009302462B46304600F040FD00200FE02E
:1024B000114618462A460AF03BFA94E828002046BE
:1024C0009B68984705490246284600F02FFD0120E9
:1024D0007CBD00BF303F0100623F01009A3F010018
:1024E000034B10B50446036005F0BAFD204610BD4D
:1024F000103F010010B5044C0261002204604160ED
:102500008260C26010BD00BF103F010030B5416065
:10251000034D0399056004468160C360026130BDCC
:10252000103F0100044B00691B6882B00193019BBE
:10253000181A02B0704700BF04C5FF1FFFFFFFFF5E
:1025400007B50B4B00691B680193019B181A09F032
:102550002FF805A3D3E9002309F0CAF909F060FBBD
:102560000EBD00BFAFF3008000000000004CED4046
:1025700004C5FF1FAFF300804FF47A7383600360DC
:102580004FF4FA7343604FF0804303610F4B002216
:10259000C0E90623002300220146C0E90823642382
:1025A00070B580F82C3000240125FA232646848754
:1025B000C46080F8295080F8285081F82D4080F8B8
:1025C0002E3044638463448570BD00BF00005940D1
:1025D0007047F8B50446C068236B081A16469D7A02
:1025E00009F028FC0746206809F020FC014638461F
:1025F00009F028FD0446284609F01CFC0146204647
:1026000009F06CFC09F030FE801903D4A84202DB0B
:10261000681EF8BD0020F8BD2DE9F0478046D0F8CF
:1026200000A0084609F002FCD8F8101009F00AFDD5
:1026300009F01AFEB8F82A30C018B0FBFAF30AFB0A
:102640001300A8F83C0080B208F0C2FFD8E90645A4
:1026500022462B4606460F4608F06CFE09F0B8FAF3
:10266000224681462B463046394608F065FE09F081
:10267000AFFAD8F80830B9F1000FB8BFD14498428A
:102680000446494688BFCAEB00044FF0FF3240467B
:10269000FFF79FFF2146C8F8340001224046FFF7AC
:1026A00098FFC8F83800BDE8F0879142CCBFC2EB74
:1026B0000102C1EB02024168531A002BC8BFC3EBF1
:1026C000010210467047FFFF2DE9F041D0E906678F
:1026D000804614461D461046194632463B4609F0D0
:1026E0006DFA00283BD13946304609F099FA08F0D6
:1026F00081FF02460B462046294609F0F9F80246BA
:102700000B460020174908F015FE09F089FA01462A
:1027100009F0E4FB044698F82C0009F08BFB014615
:10272000204609F0DBFB09F0C5FD050498F82D00F3
:1027300009F080FB0146204609F0D0FB09F0BAFD04
:1027400045EA002598F82E0009F074FB0146204662
:1027500009F0C4FB09F0AEFD2843BDE8F08100207C
:10276000BDE8F0810000F03F30B50023184622FAA2
:1027700003F521FA03F4EDB2E4B2A54228BF2C46DA
:1027800004FA03F40833182B40EA0400EFD130BDFB
:1027900070B50646084608F00BFF336B0446987A7E
:1027A0000D4608F015FF02460B462046294609F063
:1027B0009FF8044630680D4608F0FAFE02460B46C4
:1027C0002046294608F06AFF0446F0680D4608F0E6
:1027D000EFFE02460B462046294608F0ADFD70BDCF
:1027E000836B426B934210B5044604D9914219D3CE
:1027F000994204D916E0914201D9994212D3204658
:10280000FFF7C6FF09F0E4F9A28F01462046FFF763
:102810004CFF08F0DDFE02460B462046BDE81040A6
:10282000FFF752BF002010BD38B5224C21460546A7
:1028300000F0D4F900283CD004F0B4F923681E4914
:102840000246284600F072FB04F0BAF9C4B210E068
:1028500022461A49284600F069FB04F0B1F9C4B2D7
:1028600004F0A0F9022804DC2846BDE8384000F056
:10287000CDB9702CECD1124B1C7004F0A1F9114CA5
:10288000207004F09DF9104B227818704FF4FA5123
:102890004A43084B0D491B68C98902F5BB424032C7
:1028A000033392FBF1F29A18094B1A60094B01228B
:1028B0001A7038BDF0C1FF1FB83F0100D43F0100BE
:1028C000F4C1FF1F04C2FF1FE0C0FF1F849AFF1F57
:1028D00008C2FF1F0CC2FF1F73B5044604F062F963
:1028E0001A4B1A78904206461DDA194B1B68019361
:1028F000184B019A1B689A4203D8002024E004F088
:102900005FF904F04FF905460028F8D1124B13493E
:1029100018700E4B20461A78334600F007FB20460D
:1029200000F074F9E9E70E490E4805F00DFC0E4A77
:1029300000231360084A2046137000F067F9204610
:102940000A4900F0E7FA01207CBD00BF04C2FF1F66
:1029500004C5FF1F08C2FF1F0CC2FF1FEA3F010092
:10296000F1C0FF1F78C7FF1FDCC0FF1F0B40010035
:10297000034B04491A68885C01321A60704700BF33
:10298000DCC0FF1FF1C0FF1F38B5FFF7F1FF0546A0
:10299000FFF7EEFF0446FFF7EBFF000440EA0424D4
:1029A000FFF7E6FF2C4344EA006038BD08B5FFF7A7
:1029B000EBFF08BD08B5044BD88902F0E3F9BDE888
:1029C000084000F0C7B800BF849AFF1FF7B504465F
:1029D000FFF7CEFF224B234D1870FFF7D5FF224E95
:1029E0002B68224A3060C01A1060FFF7DFFF204BCF
:1029F000204F1860FFF7BCFF3870FFF7B9FF1E4B80
:102A00001870FFF7C1FF1D4B1860FFF7B1FF1C4B9B
:102A10002A6818701B493B78204600F087FA1A4B49
:102A20001A491B680193019A3368204600F07EFA28
:102A3000627A2D6813B2D90001EB43031435ED1807
:102A4000204613492B4600F071FA2046294600F033
:102A5000ABF818B920460F4900F05CFAFEBD00BF84
:102A60000DC2FF1FF0C1FF1FF8C1FF1FE4C0FF1F11
:102A7000ECC0FF1FE8C0FF1FF0C0FF1FFCC1FF1F1D
:102A8000E1C0FF1F1440010004C5FF1F33400100D7
:102A9000524001007F40010070B5044600F0AEF8DE
:102AA000054648B1104E3368984205D020460F497C
:102AB0002A4600F03BFA35600D4B1A781D4612B9D4
:102AC0002046FFF7B1FE2B7863B12046FFF704FFE5
:102AD00040B1084B1B78702B04D12046BDE87040F4
:102AE000FFF774BF70BD00BF00C2FF1F9740010019
:102AF0000CC2FF1FF4C1FF1F13B5104C23781BB18C
:102B000004F050F802280FDC0D4A1378ABB10D4BDE
:102B10000D491B680193019B09688B420DD300216D
:102B200011700A4A136008E0064B1B680093009A74
:102B3000074B1A6000232370E6E71CBD189EFF1F99
:102B400014C2FF1F04C5FF1F1CC2FF1F18C2FF1FB6
:102B500010C2FF1F0D4B002119700D4B45F6C052DE
:102B60001A800C4B186819600B490A6000F040028B
:102B700042F028021A600949094A11601A6842F0B5
:102B800040021A60074B01221A60704776C4FF1F8B
:102B900074C4FF1F00800B4008800B40F92A00001E
:102BA00070C4FF1F08E100E008B5084B1A7822B195
:102BB000074900F0AFF9002008BD72B60548016072
:102BC000054901200A60187062B608BD14C2FF1FD3
:102BD000A84001001CC2FF1F18C2FF1F054B1B7835
:102BE00033B972B6044B1B680B6062B601207047A4
:102BF00000207047189EFF1F10C2FF1F72B6024BC5
:102C0000186862B6704700BF18C2FF1F064B1A78DB
:102C100010B51C4612B1054900F07CF972B60123CB
:102C2000237062B610BD00BF189EFF1FCC4001008C
:102C300070B505460E461148002102F067FF622874
:102C400001D0002070BD01210C4802F05FFF02217D
:102C500004460A4802F05AFF40EA042084B2A54222
:102C6000EFD1002405E0E11C044802F04FFF30558D
:102C70000134AC42F7DB012070BD00BF77C4FF1FF9
:102C800070B5622205460E460C48002102F041FF55
:102C90000A480121C5F3072202F03BFF0748022141
:102CA000EAB202F036FF002405E0E11C325D034881
:102CB00002F02FFF0134AC42F7DB70BD77C4FF1F79
:102CC0002DE9F74F624B1B680646019300F628700A
:102CD000019940F2EE2201F067FC7788B6F9040012
:102CE00007B9A8B108F074FC044638B20D4608F0E4
:102CF0006FFC02460B462046294605F0BBFC52A35A
:102D0000D3E9002308F0F4FD08F08AFFC6F8100F9D
:102D100037464FF000088FE05FFA88F42046FFF74F
:102D2000A9F809F087F881462046FFF7ABF809F0CB
:102D300081F8824608F05EFC044648460D4608F0DD
:102D400059FC02460B462046294605F093FC3EA35B
:102D5000D3E9002308F0CCFD08F062FFC7F84C0B64
:102D6000B6F9020009F066F80146484608F0AEFFE1
:102D70008346B6F9040009F05DF80146504608F0B4
:102D8000A5FF00218146584609F03CFA38B1484673
:102D9000002109F037FA10B10023FB6020E048461B
:102DA00008F028FC044658460D4608F023FC02466D
:102DB0000B462046294605F05DFC23A3D3E90023FA
:102DC00008F096FD08F02CFF0021044609F024FAD3
:102DD00028B120464FF07E5108F078FF0446FC6091
:102DE0005946584609F07AF849460446484609F0DB
:102DF00075F80146204608F069FF044608F0FAFB22
:102E000005F054FE08F00CFFC7F8CC03B6F9060035
:102E100009F010F8014609F061F80146204608F073
:102E200055FF08F0E7FB05F041FE08F0F9FE08F158
:102E30000108C7F88C070437B37A9845FFF66CAFE2
:102E4000BDE8FE8FAFF3008000000040FB21194079
:102E500004C5FF1FAFF3008038B504460D46034696
:102E60005168106803C31289A5721A800023C4F840
:102E70000C3FC4F8103F0023C4F8243F294604F651
:102E8000287001F067FB2046FFF71AFF204638BD87
:102E900013B52BB1094C24680194019CC0F8244F50
:102EA000C0F80C1F80F8203F1368C0F8143F536827
:102EB000C0F8183F9368C0F81C3F1CBD04C5FF1F35
:102EC000034B82B01B680193019802B0704700BFAA
:102ED00004C5FF1FD0F80C0F704790F8200F704703
:102EE00000EB8101C868704700EB8101D1F84C0B01
:102EF000704700EB8101D1F88C077047044BD0F884
:102F0000240F1B6882B00193019B181A02B070470E
:102F100004C5FF1F10B5044C2046FEF7C5FF204630
:102F2000BDE8104005F09EB8CCC7FF1F0EB400B539
:102F3000C2B043AB02A853F8042B4FF48071019345
:102F40000BF06CFC02A90448FEF7AEFF42B05DF83E
:102F500004EB03B0704700BFCCC7FF1F08B5807AF1
:102F600005F05AF980B208BD084605F055B9FFFFD3
:102F70002DE9FF41124B1B680446039300F62876A7
:102F80000399304601F068FB94F8203F63B914E0E0
:102F90002046FFF7E3FFFF22014600973046134625
:102FA00001F0C4FB013503E000254FF01408FF27B2
:102FB000A37AB3FBF8F39D42EADBBDE8FF8100BFD3
:102FC00004C5FF1F2DE9F04105460C46D0F80C0F53
:102FD00021491746C2F5807808F080FF4FF07E51F6
:102FE000064609F037F908B14FF07E56384608F02A
:102FF00021FF0746404608F01DFF314608F06EFFEE
:103000004FF07A5108F06AFF0146384608F05EFE3C
:1030100009F050F986B2FF2E1CD82846FFF76EFF44
:103020006438002805DD022390FBF3F3C3F58073B9
:1030300001E04FF480732046B342A8BF1E4601F062
:10304000A1FC00FB06F1C1F30F212046BDE8F041D1
:1030500001F08EBCBDE8F0810000C04038B50546E7
:1030600008460C4601F08AFA204605F62871BDE8AC
:10307000384001F031BCFFFF0048704718410100A3
:10308000014B0360704700BF103F0100034B10B5B8
:103090000446036004F0E4FF204610BD103F010029
:1030A000F8B504460E46FFF73DFA05466068FFF79F
:1030B00014FF002832D1A28A236BD318AB422DD340
:1030C00000251C4F1AE0EAB20023D95D914201D9D4
:1030D000DBB203E00133062BF7D1002394F8342050
:1030E0009B18062293FBF2F102FB113304EB8303DE
:1030F000A9B230469A6901F003FB0135304601F070
:1031000056FC8542DFDB3046402101F031FC60682F
:1031100031468022BDE8F840FFF754BF94F83420D0
:1031200025630132062392FBF3F103FB112384F89C
:103130003430C5E7EE4001000048704748410100C7
:10314000054B10B5044640F8183B01F0E5F9034B78
:103150002046236010BD00BF30410100103F010038
:1031600010B50446FFF7ECFF204604F079FF204637
:1031700010BD10B50446FFF779F950B12046FFF7AE
:10318000D1F9B4F84E20014604F1180001F00CFA10
:10319000012010BD37B5044690F84A0008F04AFEF9
:1031A00005466068FFF796FE0146284608F096FE41
:1031B000054694F84B0008F03DFE0146284608F00D
:1031C00085FD94F84C1005466068FFF7CDFE08F0C9
:1031D00031FE0146284608F079FD09F045F805461C
:1031E0006068FFF7BBFEFF2DB4BF2A46FF22D2B2B4
:1031F0000146009204F11800134601F0CAFA3EBDE0
:10320000F8B504460F46FFF78DF904F11806054698
:103210002946304601F020FA2046FFF7BBFF6369DC
:1032200094F84820D318AB426361F5D36068FFF788
:1032300054FE78B93846314601F02BFB94F84D1016
:103240003846BDE8F84001F093BB2046FFF7A2FFE7
:10325000013500E0002594F849309D42F5DBE9E7AF
:103260000048704770410100014B0360704700BF88
:10327000103F0100034B10B50446036004F0F0FE5C
:10328000204610BD103F01002DE9F04F4368044671
:1032900087B0987A0E4608F0CDFDA16A08F01EFEB0
:1032A00009F008F887B22046FFF74AF9054630468C
:1032B00001F07DFBA38D584308F0BCFD294608F0C2
:1032C0000DFE08F0F7FF1FFA80F9E08D000208F00C
:1032D000B1FD294608F002FE08F0C6FF0546294662
:1032E00004F1140001F000F92946824604F11E00A1
:1032F00001F0FAF80DF10C080090217D4046022201
:10330000534601F04DF8002514E0C5EB090109B260
:10331000304601F03EFB4FEA052B9BFBF7FB824654
:103320005946404601F0CAF851460246304601F07F
:10333000E7F90135BD42E8DB606831462822FFF736
:1033400041FE07B0BDE8F08F0048704776410100AC
:10335000014B0360704700BF103F0100034B10B5E5
:103360000446036004F07CFE204610BD103F0100BF
:103370002DE9F34106460D46FFF7D4F84FF00A0851
:10338000002490FBF8F8274604EB080109B2284610
:1033900001F0FFFA01340146FF220023009728467E
:1033A00001F0C4F90A2CEFD17068294602B0BDE8DB
:1033B000F041FFF753BEFFFF10B5054C21800549D2
:1033C0000A60054A1360054B9DF808201A7010BD6D
:1033D00022C2FF1F24C2FF1F28C2FF1F20C2FF1FDF
:1033E000F8B5634B634D1B88286818245C430021A3
:1033F000224609F0BDFB604B186820B1002122462F
:1034000009F0B6FB01E02A681A605C4E5C4FFF23AE
:1034100033600220012102F007FF0E20012102F09B
:1034200003FF0720012102F0FFFE0820012102F026
:10343000FBFE0620012102F0F7FE1420012102F01C
:10344000F3FE1520012102F0EFFE0121052002F01C
:10345000EBFE4C4B4C4A1D784C4B05F01005EDB281
:10346000002D0CBF15461D46082002F05FFE03200C
:10347000294602F067FE0420294602F063FE03207D
:103480003C2102F0EDFE0420B02102F0E9FE404AAA
:10349000404B03201A60022102F0C6FE0F200021DB
:1034A00002F0C2FE3C4A3D4B3D481A603D4B02F5DE
:1034B00000721A603C4B1A6842F002021A6053F81C
:1034C000042C42F0020243F8042C384A0023136013
:1034D000D360374A012117609380D3809160D36015
:1034E00010613448938204802246334CC0F8023085
:1034F0000820208062801F4CD4F800C02F4CC4F8F4
:1035000000C0C2F1000CA180E380A160C4F80CC02F
:10351000DFF8C0C0C4F810C0A382E282A361A08318
:10352000E2832762A384E384A16225491D460B60E0
:103530004E600B814A81CB60224B0A2119805A8050
:10354000214B4FF080521A604FF0402341F232027B
:103550001A601E4BB2221D701A70B3225D705A7031
:10356000B1229D709A701A4B28341860F8BD00BFC4
:1035700022C2FF1F24C2FF1F28C2FF1FC8F00F4036
:10358000A841010020C2FF1F00350C00801A060070
:103590000003010000A004400001020000B004404C
:1035A000C4F00F403490044040800440008000404C
:1035B00020900040369000403C90004040900040F9
:1035C0006C9000407C9000400C0008E0011002402C
:1035D00000E100E0C0F00F4008B5054B03221A706F
:1035E00002F018FF034B1860034B00221A7008BD4D
:1035F0001F80004030C2FF1F2CC2FF1F10B51F4AA2
:103600001378002BFCD11E4B19681E4B18688142A1
:1036100005D01D4B1B8818225A4309F089F91B4C11
:1036200002F0F8FE2368C01A3128F9D9184B1A683D
:1036300018331B6872B611490120087015480168DB
:1036400099421449FBD908689842FCD80868984206
:10365000FCD30F4B104802F0E70119600121016013
:1036600000F5805001600D494FF4005008600C498E
:103670000E2008601A6062B610BD00BF2CC2FF1F8A
:1036800028C2FF1F24C2FF1F22C2FF1F30C2FF1F1C
:103690000090034004900340A0A00440A090044088
:1036A0000C80004007B500230093C9B201230069D4
:1036B00000F00DFC0EBDFFFFF8B5144C07460D469B
:1036C00020461D21164600F045FB3946204600F0F5
:1036D00029FA00210A46204600F009FC20461D2157
:1036E0002A46FFF7DFFF2369D3F83811D3F83421D6
:1036F0008A1AAA42F8DB0024044F04E0386900F07B
:1037000005FC30550134AC42F8DBF8BD48C2FF1F60
:1037100037B50546062101206A46FFF7CDFF6C4606
:103720000023E118185D49785A10023341EA00215C
:10373000062B25F81210F4D13EBD13B50446684699
:10374000FFF7E6FFBDF9000008F074FB4FF062518F
:1037500008F0C4FB2060BDF9020008F06BFB4FF0DD
:10376000625108F0BBFB6060BDF9040008F062FB29
:103770004FF0625108F0B2FBA0601CBD38B50F4C91
:1037800005461D21204600F0E5FA2946204600F0B6
:10379000C9F900210A46204600F0A9FB20461D2158
:1037A0000122FFF77FFF2069D0F83821D0F83431AB
:1037B0009A42F9D000F0AAFBC0B238BD48C2FF1F40
:1037C0007FB500240B2001940294039402F020FDA5
:1037D000012814D101A8FFF7B0FF002501AB00219B
:1037E000EE58304608F036FD08B906F1004620468E
:1037F000314608F06BFA04350C2D0446EED10C204E
:1038000002F006FD012801D000220BE00C20FFF79A
:10381000B5FF00F00800C0B20028F5D02220FFF765
:10382000ADFF0246204601A9FEF7FCFB7FBDFFFF6E
:1038300073B5214C05460E4620461D2100F08AFA3C
:103840002946204600F06EF900210A46204600F085
:103850004EFB1A491A48FEF727FB0023294610227F
:10386000174804F013FC164804F0FCFB0122204624
:103870001D21FFF717FF134B20691A680092009A69
:10388000B618D0F83811D0F8342191420BD11A680B
:103890000192019AB242F4D305E000F037FB09E04F
:1038A0004FF0FF3006E0D0F83821D0F834319A429A
:1038B000F3D1F5E77CBD00BF48C2FF1FA94101005D
:1038C000CCC7FF1F04C5FF1F70B50B4C06460D4645
:1038D00020461D2100F03EFA3146204600F022F934
:1038E0002946204600F01EF9204601210022BDE8AD
:1038F000704000F0FCBA00BF48C2FF1F08B52A2084
:10390000FFF73CFF40F00101C9B22A20BDE80840A2
:10391000FFF7DABF08B52A20FFF730FF00F0FE01FD
:103920002A20BDE80840FFF7CFBF2DE9F04104464B
:103930000D4690461F469DF81860FFF7EBFF082CD8
:1039400009D863B24FF022529A4004D5A1100E203C
:1039500041F0100101E00E201021FFF7B5FF2A20F1
:10396000FFF70CFF00F0C700072D40F004019CBFDB
:1039700041EAC504E1B22A20FFF7A6FF1120402149
:10398000FFF7A2FF13204421FFF79EFF142084219C
:10399000FFF79AFF12205021FFF796FF21205521B3
:1039A000FFF792FF23204146FFF78EFF2420394680
:1039B000FFF78AFF25203146FFF786FF26203021BA
:1039C000FFF782FF2720A021FFF77EFF2820FF219D
:1039D000FFF77AFF2C200221FFF776FF2D203D21F3
:1039E000FFF772FF2E200121FFF76EFFBDE8F041C7
:1039F000FFF784BF2DE9FF41394C07460E46394891
:103A000039499046FEF75DFA617B20690024A142A6
:103A100014BF0223234622460193009423460294B6
:103A2000039400F0D3F831492E48FEF74AFA0B20F0
:103A3000214602F0F9FB0B20214602F0C9FB0C20C5
:103A4000214602F0F1FB0C20214602F0C1FB28497F
:103A50002448FEF736FA0D200A21FFF7E9FE054655
:103A60006B1C204808D12349FEF72BFA4FF47A60EB
:103A700002F0EEFC1B48F6E71F49FEF722FA10227F
:103A800029462346174804F001FB164804F0EAFAD9
:103A90001A2D01D02A2D0FD100210220CDF800804F
:103AA0003A463346FFF741FF2A2D0CBF134914490C
:103AB0000C48FEF706FA11E012490A48FEF7F4F93D
:103AC000294610220023074804F0E0FA054804F0D4
:103AD000C9FA4FF47A7002F0BBFCEDE7BDE8FF8154
:103AE00048C2FF1FCCC7FF1FC0410100DB410100DE
:103AF000E6410100FB41010019420100244201009E
:103B00003A420100504201000369D3F83801D3F86A
:103B10003431C01A70477047014B0360704700BFD3
:103B2000804201000369D3F84422B2F5817F09D8AD
:103B3000D3F844229818013280F83C11C3F844228B
:103B4000012070470123037100207047036930B5DD
:103B5000D3F84442B4F5817F1CD8D3F84442D3F85B
:103B60004452C4F5817401345B19A24203F59E7579
:103B700002D9012303712246002302E0CC5CEC54FD
:103B800001339342FAD10369D3F844125118C3F8B0
:103B9000441202E0012303710022104630BDFFFFF2
:103BA000002202710273074A417310B502604FF49C
:103BB0007A74054A84604FF4187404FB0121016192
:103BC00010BD00BF804201001C9EFF1F2DE9F04187
:103BD0000C469DF818509DF81C609DF820C09DF87B
:103BE000247029B95549D1F8008048F0400806E012
:103BF000012906D15149D1F8008048F08008C1F868
:103C00000080002180F84B1280F84822416932B9C7
:103C100020230B7003681A70C3691A7014E0002D1A
:103C20000CBF202228220A70016801D0AB4201D2C9
:103C30005A0000E06A000A70C26925B1AB4201D2A5
:103C40006D0000E05D001570BCF1000F40F2032331
:103C500040F2036240F2646108BF4FF4197308BF79
:103C60000A4674B9012E05D1354A80F849621360BD
:103C7000536018E0334A80F84942136042F8043C2C
:103C800011E0012C0FD1032E06D12F4B80F8496291
:103C90001A6043F8042C06E0022280F849222B4ADD
:103CA00013600432136043680A2F1BD8DFE807F063
:103CB0001A06080A0C0E1012141618001F2212E021
:103CC0001D2210E085220EE014220CE045220AE0BD
:103CD0000D2208E00B2206E0092204E0022202E0A5
:103CE000002200E027221A70836904221A7090F8DB
:103CF000482283680AB9802200E0C0221A7054B9B1
:103D0000134B4FF08072082001211A6002F08CFAE8
:103D1000082021460BE0012C0DD10D4B4FF0007215
:103D2000092021461A6002F07FFA09200021BDE82F
:103D3000F04102F04DBABDE8F08100BF348004408C
:103D400000A004400CA0044004D0044028B004406B
:103D500000E100E00369490083F83C110369012296
:103D6000C3F844220022027183F84B227047D0F836
:103D7000443210B53BB3C36812221A7083681A78B4
:103D800002F02002D2B20AB1B42209E0C46822785B
:103D900002F02002D2B2002AF9D180F84822B022E3
:103DA0001A70012380F84B320023C0F84032836838
:103DB00080F84A12F0221A70D0F840220369801865
:103DC00090F83C211A7010BD30B54AB3C0F85022AB
:103DD0000022C0F83421C0F83821C26812241470BF
:103DE0008268147804F02004E4B20CB1B42409E031
:103DF000C5682C7804F02004E4B2002CF9D180F8D6
:103E00004842B024147080F84A320222836880F855
:103E10004B22F0221A704900036941F00101197028
:103E200030BD036993F84B32043B032B07D8DFE81E
:103E300003F004020B04022070470420704700794D
:103E4000003018BF012070470320704790F84B32B4
:103E50006BB190F84B32052B09D090F84B32062B02
:103E600005D090F84B02C31F5842584170470120BB
:103E7000704770B504460D4602F0CCFA064620465F
:103E8000FFF7E4FFD8B9002DF9D002F0C3FA801B88
:103E9000A842F4D313E094F84B32022B13D094F8D9
:103EA0004B32032B0FD04FF4A073013B7FF4FDAFD7
:103EB00094F84B02D0F1010038BF002070BD94F897
:103EC0004B32012BE7D1042384F84B32EBE710B5DA
:103ED00004460AB9002010BDFFF776FF204602997C
:103EE000FFF7C7FF0028F5D0D4F8380110BD38B56A
:103EF000044615460069FFF73AFF20692946FFF797
:103F0000B8FF2046BDE83840FFF78BBFD0F834112A
:103F1000D0F838219142034608D2D0F834218118D4
:103F2000013291F83000C3F8342170474FF0FF3070
:103F300070470069FFF7EABFD0F83421D0F8383174
:103F40009A4205D2D0F83431C01890F8300070474A
:103F50004FF0FF3070470069FFF7EEBF38B5C1681A
:103F600083680D781A78044602F02000C0B2002859
:103F700000F0AC8002F01002D2B2002A4DD094F8CA
:103F80004B22012A1CD115F00105D4F8402206D09D
:103F900002B927E0062284F84B2280220DE101328B
:103FA000C4F84022D4F844128A4202D384F84B5217
:103FB0002CE0D4F840222369A21892F83C21FCE0BE
:103FC00094F84B22022A1DD105F01002D2B23AB168
:103FD000072284F84B2280221A70E36812221FE124
:103FE000EA0701D50522D6E7032284F84B22D4F84C
:103FF0005022012A01D1E82200E0E0221A70236950
:104000001B780BE194F84B22042AC6D194F84A227B
:10401000012A00D1C1E7B022CFE0D4F83811D4F89A
:1040200050220231914200F0FD8094F84B22042A84
:1040300004D194F85522002A00F0F480D4F83821F5
:10404000D4F8503201329A4280F0EF8094F84B322B
:10405000042B40F0F38094F85532002B40F0E580BB
:10406000ECE084F84B32A368B0221A702369197807
:10407000D4F83831B3F5817F07D8D4F83831E21855
:10408000013382F83010C4F8383194F84A32012BE9
:1040900006D12023013B7FF4FDAFA36880221A7074
:1040A00094F84B3207E0D4F83831E118013381F845
:1040B0003020C4F8383194F84B32042B40F0AE80F5
:1040C00094F85532002B00F0C280A7E005F01003F1
:1040D000DBB233B110230B7005F04003DBB203B940
:1040E0009CE015F0400150D094F84B32092B04D1DC
:1040F000D4F85832002B40F0AE8015F004051DD0E6
:10410000082384F84B320023C4F84432D4F85C32DC
:1041100003B19847D4F844320BB984F83C31A36812
:10412000D0221A7023691A78520884F84C2294F825
:104130003C211A700123C4F840326FE094F8492200
:1041400084F854520AB9122002E0012A02D1112047
:10415000444903E0022A03D143491E20032203E01D
:10416000032A03D140491F2001F06AFE092384F885
:104170004B320023C4F83831A368C0221A70236977
:104180001B785B0884F84C3248E012F010021ED015
:1041900015F0010513D1D4F84022D4F844329A42E4
:1041A00007D2D4F84032E218013392F83C51C4F8F7
:1041B000403223691D70A368D0221A702EE0A368D4
:1041C000C0221A7023691B7884F84B1226E084F809
:1041D000542294F849220AB9122002E0012A02D19D
:1041E0001120204903E0022A03D11F491E20032287
:1041F00003E0032A03D11C491F2001F021FE23699B
:104200001978D4F83831B3F5817F07D8D4F838312C
:10421000E218013382F83010C4F83831E368022222
:104220001A7038BDE8221A7008E794F84B22002370
:10423000042A84F855327FF414AF14E723691A78FE
:10424000D4F83831B3F5817F7FF62DAF33E7012302
:1042500084F85532E2E70022C4F83421D4F838015A
:1042600098474AE7514300004543000008B509203C
:10427000012101F0ADFF01210448FFF76FFE092085
:104280000021BDE8084001F0A3BF00BF7CA0FF1FD4
:1042900008B50820012101F09BFF00210448FFF729
:1042A0005DFE08200021BDE8084001F091BF00BF7D
:1042B0001C9EFF1F10B5C3681B7813F02003044633
:1042C0001ED180F84B3290F849320BB912200AE027
:1042D000012B01D1112006E0022B01D11E2002E0AA
:1042E000032B02D11F2001F0D5FDD4F85832002B4A
:1042F00027D00022C4F83421D4F83801984710BDE3
:1043000090F854320133DBB2012B80F8543213D8C9
:1043100090F84832012B0FD110BD122008E0112077
:10432000012B05D01E20022B02D0032B09D11F2008
:10433000BDE8104001F0AEBD94F84932002BEED13B
:10434000EBE710BD01480121FFF7B4BF7CA0FF1FC0
:1043500001480021FFF7AEBF1C9EFF1F70B50C4E39
:104360000C4D0D4C00213046FFF71AFC30460B4E29
:104370002246294607F0BEFF01213046FFF710FC18
:10438000304629462246BDE8704007F0B3BF00BF63
:1043900048C2FF1F193B0000809AFF1F34C2FF1F55
:1043A00030B5039D42701A0C42802A0C8280C37182
:1043B0001A0A2B0A0446017082710372457230BDDD
:1043C0004378012B02D0022B09D00CE0C805C00DA8
:1043D000FF28C4BFC0F5FF700130C0B2704700298C
:1043E00003DBFF2903DCC8B2704700207047FF20C1
:1043F0007047F8B5044616461F46FFF7E1FF61888F
:10440000A588A94208D0C0F1FF03454301FB035131
:10441000FF2391FBF3F189B23170A279617A8A426C
:1044200009D0C0F1FF0310FB01F102FB0312FF23CF
:1044300092FBF3F2D2B23A70E379627A934209D0F6
:10444000C0F1FF0110FB02F003FB0103FF2193FB0E
:10445000F1F3DBB2069A1370F8BDF0B587B00746EA
:104460001D460DF10F03009316460DF10E030DF1DD
:104470000D020C9CFFF7BDFF39789DF80D209DF8CB
:104480000E30A1B18DF811309DF80F308DF810204D
:1044900004A805A98DF8123000F0CEFB9DF8143069
:1044A00033709DF815302B709DF8163003E0327094
:1044B0002B709DF80F30237007B0F0BD1FB50DF1C4
:1044C0000F0300930DF10D020DF10E03FFF7C5FF71
:1044D0009DF80E009DF80D30000240EA03409DF863
:1044E0000F30184305B000BD1FB50DF10F03009349
:1044F0000DF10D020DF10E03FFF77BFF9DF80E008D
:104500009DF80D30000240EA03409DF80F3018433B
:1045100005B000BD00207047044B10B50446036091
:10452000406A07F031FF204610BD00BFA0420100E5
:1045300001230372002310B5437203211C4602E0DD
:10454000426AD454013382884A439342F8DB002301
:10455000C38010BD38B5084B818003254D43044608
:104560000360284607F008FF45196062A5622046EF
:10457000FFF7DEFF204638BDA0420100037A30B5C8
:104580008BB901220272447A032106E0426AD55CAB
:1045900014FB05F52D12D554013382884A4393420A
:1045A000F4DB0023437230BD002310B580F82030C7
:1045B0000446C160104607F00BF802460B4604A102
:1045C000D1E9000107F094F9C4E9060110BD00BF6C
:1045D000D8BC056D2DA985C08388032159430023CC
:1045E00010B51A4603E0446AE45C013312198B42A9
:1045F000F9DBB2FBF1F2FF2A94BFD0B2FF2010BD6D
:10460000F0B50023032657180BE0446AE518E45C74
:10461000944205D9BC42CABFC1EB04042A702C7075
:10462000013384887443A342EFDBF0BD70B50023EF
:1046300003260BE0446AE55C954206D915FB01F5BB
:104640002D0A954238BF1546E554013384887443DA
:10465000A342EFDB70BDFFFF2DE9F041C46890F885
:1046600020800C1B06460F46B4F57A7F28BF4FF416
:104670007A74B8F1000F0DD0037C5C434FF47A7369
:10468000B4FBF3F414F0FF0129D0C7600022FFF758
:10469000B7FF28E0204606F08BFFD6E9062306F098
:1046A000FDFF0022144B07F023F911A3D3E90023E7
:1046B00004460D4607F082FA98B92046294603F0D1
:1046C000DBFF00220D4B06F0E9FF07F081FA0446FC
:1046D000E1B230464246FFF7A9FFF76003E00C461F
:1046E00001E04FF480742046BDE8F081AFF3008014
:1046F0007B14AE47E17AA4BF00408F4000007040B9
:1047000030B5C4880919848891FBF4F304FB1313B2
:1047100003256B43416A9BB2140CCC54416AC918FF
:10472000140A4C70416ACB189A7030BD30B5C488F9
:104730000919848891FBF4F504FB151103256943DD
:1047400089B2446A6254426A52185370436A5918D3
:104750009DF80C308B7030BD30B585B005468DF8B6
:1047600009309DF820308DF808200C4602A803A9D6
:104770008DF80A3000F060FA9DF80E109DF80C20BC
:1047800000919DF80D3028462146FFF7CFFF05B078
:1047900030BD70B5C5889DF810404919858891FBDA
:1047A000F5F605FB161103267143456A89B26E5C66
:1047B000964238BF6A544A1C456AAE5C9E4238BF76
:1047C000AB540231436A5A5CA24238BF5C5470BD9C
:1047D00030B5C4880919848891FBF4F504FB1511E0
:1047E00003256943446A89B2655C5219FE2A88BF71
:1047F000FF2262544A1C446AA55C5B19FE2B88BFE9
:10480000FF23A3540231436A9DF80C005A5C8218BE
:10481000FE2A88BFFF225A5430BD30B5446A8088D2
:10482000032505FB004003E021706270A370033490
:104830008442F9D330BD13B504468DF800106846A4
:1048400001A98DF801208DF8023000F0F5F920461D
:104850009DF804109DF805209DF80630FFF7DDFF58
:104860001CBD30B5C4880919848891FBF4F504FB9C
:10487000151103256943446A89B2645C1470426A65
:10488000521852781A70436A5918039B8A781A7022
:1048900030BD2DE9FF410546884600240DF10F0784
:1048A00015E0A6B2404631460DF10D020DF10E03A2
:1048B0000097FFF7D6FF9DF80F109DF80D2000918F
:1048C0009DF80E3028463146FFF730FF0134AB88A3
:1048D0009C42E6DBBDE8FF812DE9FF4105468846A5
:1048E00000240DF10F0715E0A6B2404631460DF148
:1048F0000D020DF10E030097FFF7B3FF9DF80F10A7
:104900009DF80D2000919DF80E3028463146FFF7A6
:1049100040FF0134AB889C42E6DBBDE8FF81C388E1
:10492000C918838891FBF3F203FB1213032253434C
:104930009BB2426AD05C7047C388C918838891FBD8
:10494000F3F203FB121303225343426A12FA83F376
:1049500058787047C388C918838891FBF3F203FB2A
:10496000121303225343426A12FA83F39878704772
:10497000B1F5807F02D101230372704700230372D7
:1049800041727047037A0BB9407A70474FF48070D8
:10499000704701E0C91809B200298388FADB9942FF
:1049A000A4BF91FBF3F003FB101188B2704780881D
:1049B00070472DE9FF47044601F02CFDA28E236BC2
:1049C000677A80461826204606FB0236FFF7EFFF7F
:1049D000002582460DF10F093EE00DF10E03CDF8E2
:1049E0000090204629460DF10D02FFF73AFF237A89
:1049F000A3B99DF80D3017FB03F31B128DF80D3092
:104A00009DF80E3017FB03F31B128DF80E309DF846
:104A10000F3017FB03F31B128DF80F309DF80D00BC
:104A20009DF80E30000240EA03409DF80F30182137
:104A300018434FF40002731C4FF0010E12EA000CF1
:104A400014BF03F801EC03F801CC1E4652080133F1
:104A50000139F3D10135ADB25545BED101F0DAFCD3
:104A60000546E06AFEF7CAFDC8EB050004B0BDE8E4
:104A7000F087FFFFF8B51E46094B0D461988891BC4
:104A800089B204461746FFF765FD064BE5622846E6
:104A900023602763A686FEF7A3FC2046F8BD00BF6F
:104AA00022C2FF1FB0420100094A01624260094A66
:104AB0000121826000224261017042701421428013
:104AC0000273FF22818301824273C273704700BF69
:104AD0009A99993E6666A63F10B504460846A168B5
:104AE00007F0FCF96168A06007F096FB08B10023AD
:104AF000637010BD38B5044601230D4643704FF076
:104B00007E51406807F0E2F8A38BA060EB18A36128
:104B1000238AED18656138BD38B50446006A0D4634
:104B2000FFF745FF4EF6602393FBF5F393FBF0F0A0
:104B30004FF4FA6393FBF5F52082A58338BDFFFFA0
:104B40002DE9F341044640780E4600283DD0204D23
:104B500004F10C07A26963699A4209D2B24233D8C0
:104B6000A38B1C499A18A2612046FFF7B5FFF1E715
:104B7000B34229D8228A6188D318636123780BB1A4
:104B8000013100E0013909B2206AFFF702FF6080BD
:104B9000E07B07F04FF961688046A06807F094F861
:104BA0000146404607F09AF907F084FB0849A073D4
:104BB000384600F041F8A878618800902A786B7830
:104BC000206AFFF705FEC5E70120BDE8FC8100BFB4
:104BD0005CC2FF1FA4707D3F202310B5C0F80032D7
:104BE000FF23044680F8043200214FF4007207F0DE
:104BF000BFFF204610BDFFFF0148FFF7EDBF00BF1C
:104C000060C2FF1F30B505781C1C18BF01241DB100
:104C100015FB03F504EB15250570087818B110FB9A
:104C200003F004EB10200870117819B111FB03F1A7
:104C300004EB1121117030BD2DE9F341067890F895
:104C40000180847806F01F020F465200520055235F
:104C5000520012FB03F2120A16F0800F06F0400514
:104C600006F0200023D101466DB918B9D3438DF861
:104C7000053010E0AB2155328DF805108DF8062077
:104C80008DF807503DE058B955006FF054035B1B99
:104C90008DF80530553A8DF806208DF8070030E084
:104CA00000238DF80530D3438DF8063027E085B911
:104CB00048B98DF805006FF0540352009B1A8DF827
:104CC000063055321BE08DF805208DF80650D24392
:104CD00015E058B902F155018DF805108DF8060060
:104CE0006FF054039B1A8DF807300AE0A2F15503C8
:104CF0008DF8053000238DF80630C2F155028DF88D
:104D00000720B8F1FF0F1FD043466FEA08080DF1E6
:104D100005000DF106010DF107025FFA88F8FFF7B3
:104D200071FF18FB08F89DF805304FEA1828434436
:104D30008DF805309DF8063043448DF806309DF817
:104D4000073098448DF80780FF2C09D094B90DF1F5
:104D500005000DF106010DF107022346FFF752FF92
:104D60009DF805303B709DF806307B709DF807304C
:104D7000BB7005E014FB04F4240A0134E4B2E6E756
:104D8000BDE8FC8110B502210446092001F04CFA6F
:104D900001210A2001F048FA600800F1376000F5AF
:104DA000D830B0FBF4F001F0FFFD1620012101F036
:104DB0003BFA044B4FF440721A60034B06221A7000
:104DC00010BD00BF04B004400DB00640154B412299
:104DD0001A700E2203F8012C073B80221A701978F2
:104DE000114A0906FBD51149114B08781870114872
:104DF000007858701048007898700A4B412018705D
:104E00000F2003F8010C8023137013781B06FCD5C8
:104E10000B780748C370074B1B780371064B1B7850
:104E20004371704707000240000002400A00024040
:104E300068C4FF1F090002400800024070B5114C11
:104E4000114EFFF7C3FFA51D05E033680E485B68F0
:104E50000E490122984761780B4809091022002366
:104E600003F014F914F8011F07481022002301F081
:104E70000F0103F00BF9AC42E7D10348BDE87040E5
:104E800003F0F0B867C4FF1FCCC7FF1FB842010092
:104E9000704708B5014607F021F808BD10B54FF07E
:104EA0008041044606F010FF0146204607F016F840
:104EB00000F1004010BD38B54FF07C51044607F0BA
:104EC000ABF938B12146204606F000FF214607F035
:104ED00005F838BD20464FF0404106F0FFFF21465F
:104EE00006F0FCFF4FF081410546204606F0F6FF34
:104EF0000146284606F0EAFE4FF07E5106F0E4FE39
:104F000038BD10B50146044606F0E8FF214606F01C
:104F1000E5FF10BD10B54FF07E5106F0D5FE0446FA
:104F2000014606F0DBFF214606F0D8FF4FF07E5128
:104F300006F0CCFE10BDFFFF38B54FF07C510446A3
:104F400007F06AF958B120464FF0814106F0C6FFDC
:104F5000214606F0C3FF214606F0C0FF38BD2146BA
:104F6000204606F0B3FE4FF0804106F0ADFE06F09D
:104F700041FB002204460D46084B06F08FFB2246FB
:104F80002B4606F08BFB22462B4606F087FB0022C1
:104F9000034B06F0D1F906F043FE38BD0000E03FB8
:104FA0000000F03F10B50146044606F097FF214689
:104FB00006F094FF214606F091FF10BD38B54FF082
:104FC0007E51054606F080FE0446014606F086FF47
:104FD000214606F083FF294604464FF07E5006F036
:104FE00073FE0146204606F079FF4FF07E5106F031
:104FF0006DFE38BD10B54FF07C51044607F00CF93A
:1050000070B120464FF0824106F068FF214606F05D
:1050100065FF214606F062FF214606F05FFF10BDE6
:1050200020464FF07E5106F04FFE4FF041410446BE
:1050300006F054FF214606F051FF214606F04EFFD0
:10504000214606F04BFF4FF07E5106F03FFE10BDAB
:1050500010B50146044606F041FF214606F03EFF2A
:10506000214606F03BFF214606F038FF10BD10B583
:105070004FF07E5106F028FE0446014606F02EFF52
:10508000214606F02BFF214606F028FF214606F0B8
:1050900025FF4FF07E5106F019FE10BD38B54FF0D8
:1050A0007C51044607F0B8F888B120464FF08341A0
:1050B00006F014FF214606F011FF214606F00EFF10
:1050C000214606F00BFF214606F008FF38BD2146B9
:1050D000204606F0FBFD4FF0804106F0F5FD06F09E
:1050E00089FA002204460D460C4B06F0D7FA2246F8
:1050F0002B4606F0D3FA22462B4606F0CFFA22467C
:105100002B4606F0CBFA22462B4606F0C7FA0022C1
:10511000034B06F011F906F083FD38BD0000E03FB7
:105120000000F03FFFFFFFFF08B54FF07E5106F093
:10513000CBFD06F05FFA08A3D3E9002306F0AEFA30
:1051400003F0DAF90022064B06F0F6F806F068FDE7
:1051500008BD00BFAFF30080182D4454FB21F93F78
:105160000000F03FAFF3008008B506F043FA06A355
:10517000D3E9002306F092FA03F0BEF906F050FDE1
:1051800008BD00BFAFF30080182D4454FB21F93F48
:1051900008B506F02FFA0AA3D3E9002306F07EFA39
:1051A00003F0D6F802460B460020074906F0C2F885
:1051B0000022064B06F072FA06F032FD08BD00BF71
:1051C000182D4454FB2109400000F03F0000E03F4F
:1051D00008B5014606F082FE01464FF07E5006F00B
:1051E00073FD06F007FA03F061FC02460B4600204F
:1051F000024906F09FF806F013FD08BD0000F03FDD
:1052000010B5044621464FF0804006F05DFD214672
:1052100006F064FE06F0EEF903F048FC06F000FD2F
:1052200010BDFFFF38B54FF07C51044606F0F4FF87
:10523000B8B12146204606F051FE4FF0814106F0FC
:105240004DFE01464FF07E5006F03EFD06F0D2F9CD
:1052500003F02CFC02460B460020134906F06AF8C6
:105260001AE02146204606F031FD1049054606F0B9
:105270002BFD4FF07E5100F10044284606F024FD3E
:105280000146204606F02AFE06F0B4F903F00EFCB3
:105290000022054B06F050F80022054B06F0FEF9FF
:1052A00006F0BEFC38BD00BF0000F03F00004040EB
:1052B0000000E03F10B50021044606F0A3FF98B9B6
:1052C00020464FF07E5106F0FFFC084906F006FE2E
:1052D00006F090F902460B4600204FF0804103F0A3
:1052E0004BFA06F09DFC0446204610BD000020410C
:1052F00010B54FF07E51044606F084FFA8B9204651
:105300000B4906F0EBFD06F075F902460B4600204E
:105310004FF0804103F030FA02460B460020054969
:1053200006F008F806F07CFC0446204610BD00BFDD
:10533000000020C10000F03F10B50021044606F037
:1053400061FF00283CD120464FF07E5106F05AFF05
:10535000002835D120464FF07C5106F05DFFA0B10A
:105360002046184906F0BAFD174906F0ADFC06F0D4
:1053700041F902460B4600204FF0804103F0FCF952
:105380000022124B06F08AF917E01149204606F078
:10539000A5FD0D4906F09AFC06F02CF902460B46D5
:1053A00000204FF0804103F0E7F90022094B06F09E
:1053B00075F90022084B05F0BFFF06F031FC0446EA
:1053C000204610BD0000A041000020410000E03F49
:1053D0000000A0C10000E0BF0000F03FFFFFFFFFA2
:1053E00070B5064606F006F911A3D3E9002306F0CE
:1053F00055F903F081F804460D4630464FF07E51D2
:1054000006F062FC0C4906F069FD06F0F3F802466E
:105410000B4600204FF0804103F0AEF902460B46E8
:105420002046294606F03AF906F0FAFB70BD00BFA7
:10543000A46477349C6B344000002041AFF30080BB
:1054400070B54FF07E51064606F040FC06F0D2F8EB
:1054500011A3D3E9002306F021F903F04DF8044627
:105460000D4630460E4906F039FD06F0C3F80246F7
:105470000B4600204FF0804103F07EF902460B46B8
:105480002046294606F00AF90022064B05F054FF93
:1054900006F0C6FB70BD00BFA46477349C6B34C0BB
:1054A000000020C10000F03FF8B54FF07C510446E9
:1054B00006F0B2FE58B32146204606F007FC04462B
:1054C00006F098F82EA3D3E9002306F0E7F803F0DE
:1054D00013F806460F4620464FF07E5106F0F4FBC7
:1054E0002B4906F0FBFC06F085F802460B4600202F
:1054F0004FF0804103F040F9002204460D46254B51
:105500003046394606F0CAF822462B4631E021469D
:10551000204606F0DBFB4FF07E5106F0D5FB4FF046
:105520007E51064606F0D2FB06F064F816A3D3E9D6
:10553000002306F0B3F802F0DFFF04460D463046C4
:10554000154906F0CBFC06F055F802460B46002044
:105550004FF0804103F010F902460B4620462946E1
:1055600006F09CF800224FF0804305F0E5FE094B61
:10557000002206F093F806F053FBF8BDAFF300806D
:10558000A46477349C6B3440A46477349C6B34C03F
:10559000000020410000E03F000020C1AFF3008088
:1055A0002DE9F843044606F025F813A3D3E90023B8
:1055B00006460F4606F072F802F09EFF80468946C6
:1055C0002046214606F08AFC214606F087FC06F0BC
:1055D00011F8424604460D464B463046394606F021
:1055E0005DF802460B462046294605F0A3FE06F06C
:1055F00017FBBDE8F88300BF182D4454FB21094078
:105600002DE9F84301464FF07E5006F05DFB04465D
:1056100005F0F0FF16A3D3E9002306460F4606F077
:105620003DF802F069FF804689462046214606F093
:1056300055FC214606F052FC05F0DCFF42460446CC
:105640000D464B463046394606F028F802460B46D2
:105650002046294605F06EFE02460B46002006490C
:1056600005F068FE06F0DCFABDE8F883AFF30080D1
:10567000182D4454FB2109400000F03FAFF3008097
:105680002DE9F8434FF07C51044606F0C5FD002893
:105690002DD02146204606F019FB044605F0AAFF4E
:1056A00035A3D3E9002306460F4605F0F7FF02F0C5
:1056B00023FF804689462046214606F00FFC2146FE
:1056C00006F00CFC05F096FF424604460D464B469C
:1056D0003046394605F0E2FF02460B462046294691
:1056E00005F028FE0022264B05F0D8FF3FE02146BA
:1056F000204606F0EBFA4FF07E5106F0E5FA01463F
:105700004FF07E5006F0E0FA044605F073FF1AA34E
:10571000D3E9002306460F4605F0C0FF02F0ECFE79
:10572000804689462046214606F0D8FB214606F0F1
:10573000D5FB05F05FFF424604460D464B4630461A
:10574000394605F0ABFF02460B462046294605F0D8
:10575000F1FD02460B4600200A4905F0EBFD002250
:10576000074B05F09BFF0022054B05F0E5FD06F019
:1057700057FABDE8F88300BF182D4454FB210940B7
:105780000000E03F0000F03FF8B5064605F032FFAC
:1057900041A3D3E9002304460D4606F0F1F958B1C0
:1057A0003046554906F09AFB314606F097FB4FF01C
:1057B000765106F093FBF8BD2046294638A3D3E97D
:1057C000002306F0DDF9E8B137A3D3E90023204632
:1057D000294605F063FF22462B4605F05FFF34A300
:1057E000D3E9002306460F462046294605F056FF1A
:1057F00002460B463046394605F09CFD2EA3D3E900
:10580000002342E0204629462DA3D3E9002306F0D9
:10581000B7F9E8B12CA3D3E900232046294605F0C7
:105820003DFF22462B4605F039FF29A3D3E900238B
:1058300006460F462046294605F030FF02460B4635
:105840003046394605F076FD23A3D3E900231CE05A
:1058500023A3D3E900232046294605F01FFF224653
:105860002B4605F01BFF20A3D3E9002306460F4675
:105870002046294605F012FF02460B4630463946BF
:1058800005F058FD1AA3D3E9002305F055FD06F0F5
:10589000C7F9F8BDAFF3008046175D74D145D73F17
:1058A00046175D74D145E73F666666666626224008
:1058B000CDCCCCCCCCCC23403333333333330B403F
:1058C000CDCCCCCCCCCCEC3FA7F48FED092228403A
:1058D000A4A76A50ADA2334044EFCDA4CECB214063
:1058E0009A9999999999254085EB51B81E8534402C
:1058F000713D0AD7A37025400000F242AFF300804B
:10590000014608B54FF07E5006F0DEF9FFF73CFF88
:1059100001464FF07E5006F0D7F908BD10B54FF0A4
:105920007C51044606F078FC50B12146204606F032
:10593000CDF9FFF7E5FF4FF07C5106F0CFFA10BD2F
:105940002146204606F0C2F94FF07E5106F0BCF920
:10595000FFF71AFF05F04EFE0022054B05F09EFEF4
:105960000022034B05F0E8FC06F05AF910BD00BF19
:105970000000E03F013909293CD8DFE801F0050AC1
:105980000F14191E23282D32002835D0244B254A08
:105990002BE0002832D0244B244A26E000282FD0C8
:1059A000234B244A21E000282CD0234B234A1CE01F
:1059B000002829D0224B234A17E0002826D0224B6A
:1059C000224A12E0002823D0214B224A0DE0002871
:1059D00020D0214B214A08E000281DD0204B214A2D
:1059E00003E000281AD0204B204A012814BF10469B
:1059F000184670471E4870471E4870471E4870473B
:105A00001E4870471E4870471E4870471E48704722
:105A10001E4870471E4870471E4870471E48704712
:105A20009D4E0000B74E0000154F0000394F00009A
:105A3000BD4F0000F54F00006F5000009D5000006A
:105A400069510000915100000152000025520000F0
:105A5000F15200003953000041540000A9540000E5
:105A60000156000081560000895700001D590000B2
:105A7000914E0000934E0000034F0000A54F000020
:105A80005150000029510000D1510000B5520000D2
:105A9000E1530000A15500000159000072B60A4B05
:105AA0004CF220521A804DF628121A802023013B16
:105AB0007FF4FDAF054B01221A80054AD8800023F0
:105AC0001380538262B670470E20054000200540C7
:105AD0000420054072B6044B4AF202621A804BF26F
